:100000000C947D000C94A5000C94A5000C94A50004
:100010000C94A5000C94A5000C94A5000C94A500CC
:100020000C94A5000C94A5000C94A5000C94A500BC
:100030000C94A5000C94A5000C94A5000C94A500AC
:100040000C94E1000C94A5000C94A5000C94A50060
:100050000C94A5000C94A5000C94A5000C94A5008C
:100060000C94A5000C94A500250721072D07250752
:100070002D071A0725072B072B072B072D072D0701
:100080002D072D072D072D072D072B072B0763089D
:10009000560867086C0879087E088B080000000085
:1000A000240027002A0000000000250028002B0063
:1000B00000000000230026002900040404040404B6
:1000C0000404020202020202030303030303010207
:1000D00004081020408001020408102001020408D6
:1000E00010200000000800020100000304070000C7
:1000F000000000000000430CB50C11241FBECFEF20
:10010000D8E0DEBFCDBF13E0A0E0B1E0E2E4FCE167
:1001100002C005900D92A23CB107D9F723E0A2ECF2
:10012000B3E001C01D92A43FB207E1F710E0CCE7B5
:10013000D0E004C02197FE010E94D90CCB37D10733
:10014000C9F70E9496050C94140E0C94000060E010
:1001500070E0CB010E94F1020C94540163E073E063
:1001600083E090E00E94F1020C9454018AEF0E9417
:100170000004892BD9F708953FB7F8948091D303F1
:100180009091D403A091D503B091D60326B5A89B36
:1001900005C02F3F19F00196A11DB11D3FBFBA2F19
:1001A000A92F982F8827820F911DA11DB11DBC0179
:1001B000CD0143E0660F771F881F991F4A95D1F73D
:1001C00008951F920F920FB60F9211242F933F9311
:1001D0008F939F93AF93BF938091CF039091D00360
:1001E000A091D103B091D2033091CE0326E0230F2A
:1001F0002D3720F40296A11DB11D05C029E8230F5B
:100200000396A11DB11D2093CE038093CF0390933D
:10021000D003A093D103B093D2038091D3039091E4
:10022000D403A091D503B091D6030196A11DB11DB1
:100230008093D3039093D403A093D503B093D603B4
:10024000BF91AF919F918F913F912F910F900FBED2
:100250000F901F901895833081F028F4813099F029
:100260008230A1F008958730A9F08830B9F0843049
:10027000D1F4809180008F7D03C0809180008F77C2
:1002800080938000089584B58F7702C084B58F7DF8
:1002900084BD08958091B0008F7703C08091B00035
:1002A0008F7D8093B00008950F931F93CF93DF93BA
:1002B000CDB7DEB729970FB6F894DEBF0FBECDBF1E
:1002C0008091DF039091E003892B09F47FC10E94A4
:1002D000BC000091E5031091E6032091E703309103
:1002E000E803DC01CB01801B910BA20BB30B8C321A
:1002F0009140A105B10558F3F8948091DB039091EA
:10030000DC039A838983A091DF03B091E003FD01B0
:1003100031968C9189878091D703A091E903B091A0
:10032000EA03882309F417C11B82AB32B10509F037
:1003300058C09BB18091EB03982B98879BB1809517
:1003400089238F838F818C83898587FF02C088856D
:100350008C8358856F8149853C812B8189819A8165
:100360005BB9262F3BB900C046FD252F6BB900C0F5
:100370005BB9362F2BB900C045FD352F6BB900C0D6
:100380005BB9262F3BB900C044FD252F6BB900C0D7
:100390005BB9362F2BB900C043FD352F6BB900C0B8
:1003A0005BB9262F3BB900C042FD252F6BB900C0B9
:1003B0005BB9362F2BB900C041FD352F6BB900C09A
:1003C0005BB9262F3BB900C040FD252F6BB90197C3
:1003D0005BB9362F2BB9419147FD352F6BB901F62B
:1003E000B6C0A532B10509F058C095B18091EB03B4
:1003F000982B988795B1809589238F838F818C83E3
:10040000898587FF02C088858C8358856F814985DF
:100410003C812B8189819A8155B9262F35B900C03D
:1004200046FD252F65B900C055B9362F25B900C046
:1004300045FD352F65B900C055B9262F35B900C027
:1004400044FD252F65B900C055B9362F25B900C028
:1004500043FD352F65B900C055B9262F35B900C009
:1004600042FD252F65B900C055B9362F25B900C00A
:1004700041FD352F65B900C055B9262F35B900C0EB
:1004800040FD252F65B9019755B9362F25B9419102
:1004900047FD352F65B901F65AC0989709F08BC012
:1004A00098B18091EB03982B988798B18095892318
:1004B0008F838F818C83898587FF02C088858C8399
:1004C00058856F8149853C812B8189819A8158B9F2
:1004D000262F38B900C046FD252F68B900C058B98D
:1004E000362F28B900C045FD352F68B900C058B96E
:1004F000262F38B900C044FD252F68B900C058B96F
:10050000362F28B900C043FD352F68B900C058B94F
:10051000262F38B900C042FD252F68B900C058B950
:10052000362F28B900C041FD352F68B900C058B931
:10053000262F38B900C040FD252F68B9019758B95A
:10054000362F28B9419147FD352F68B901F6498703
:100550003C832B832EC09C918091EB03982B988732
:100560009C91809589238F838F818E8388E08D83F2
:1005700058856F8149853D812E8189819A815C935F
:1005800047FD252F2C93262F3A9531F0441F6C936D
:1005900000C000C000C0F3CF6C93000038E0419170
:1005A000019769F7B093EA03A093E90349873D8374
:1005B0002E839A83898378940E94BC006093E5031C
:1005C0007093E6038093E7039093E80329960FB6B0
:1005D000F894DEBF0FBECDBFDF91CF911F910F9179
:1005E00008958F929F92AF92BF92CF92DF92EF9237
:1005F000FF92CF93DF932091D9033091DA03232B1D
:1006000009F44BC04C01AA24BB24A82DC72ED82E18
:10061000E92EFF24FC2DE62F2091DE03222361F03A
:10062000829E40011124A92D2C9D60011124FD2DD5
:10063000269FA0011124E52F3091E403B091E1033E
:100640004091DF035091E0033B17A9F0892E9924D4
:10065000AA24BB24EA01C30FD11D211102C0682DB9
:1006600009C030E0289D7001299DF00C389DF00CE8
:1006700011246F2D68838091E103EA01C80FD11D19
:10068000A8838091E203DA01A80FB11DFC93809149
:10069000E303DA01A80FB11DEC93DF91CF91FF9036
:1006A000EF90DF90CF90BF90AF909F908F90089584
:1006B000CF93DF93282F30E0F901EE51FF4F849163
:1006C000F901E253FF4FD491F901E654FF4FC49171
:1006D000CC2391F081110E942B01EC2FF0E0EE0F62
:1006E000FF1FE055FF4FA591B491EC91ED2381E000
:1006F00090E021F480E002C080E090E0DF91CF91B3
:1007000008951F93CF93DF93282F30E0F901EE5126
:10071000FF4F8491F901E253FF4FD491F901E65460
:10072000FF4FC491CC23C1F0162F81110E942B01E1
:10073000EC2FF0E0EE0FFF1FEA55FF4FA591B491AB
:100740009FB7F894111104C08C91D095D82302C0A2
:10075000EC91DE2BDC939FBFDF91CF911F91089529
:10076000CF93DF9390E0FC01E253FF4F2491FC0113
:10077000E654FF4F8491882361F190E0880F991F20
:10078000FC01E456FF4FC591D491FC01EA55FF4F9F
:10079000A591B491611109C09FB7F8948881209503
:1007A00082238883EC912E230BC0623061F49FB7C3
:1007B000F8948881322F309583238883EC912E2BF7
:1007C0002C939FBF06C08FB7F894E8812E2B288307
:1007D0008FBFDF91CF910895CF93C82F60E00E9423
:1007E000B00361E08C2FCF910C948103CF93C82F7D
:1007F00061E00E94B00360E08C2FCF910C948103E4
:10080000CF92DF92EF92FF920F931F93CF93DF93DC
:10081000182F8091EC030E945803892B09F497C08C
:100820008091EE030E945803892B09F493C08091B4
:10083000EE039091EF030E94F603C4E2D0E0CE01F4
:100840000197F1F78091EC039091ED030E94F6037C
:100850008CE490E00197F1F78091EC039091ED0327
:100860000E94EC032197F1F7D8E0C1E084E2E82E82
:10087000F12C9CE4C92ED12C8091EE039091EF03D2
:10088000012F017010FF03C00E94EC0302C00E9400
:10089000F603C7010197F1F78091EC039091ED0306
:1008A0000E94F603C6010197F1F78091EC03909145
:1008B000ED030E94EC03C7010197F1F7C0271695DD
:1008C000D150D1F68091EE039091EF03CC2319F033
:1008D0000E94EC0302C00E94F603C4E2D0E0CE0105
:1008E0000197F1F78091EC039091ED030E94F603DC
:1008F0000CE410E0C8010197F1F78091EC039091AE
:10090000ED030E94EC03CE010197F1F78091EE0315
:100910009091EF030E94EC03CE010197F1F78091D3
:10092000EC039091ED030E94F603C8010197F1F7E3
:100930008091EC039091ED030E94EC032197F1F775
:1009400080E690E00197F1F780E090E005C08FEF3E
:100950009FEF02C08EEF9FEFDF91CF911F910F911C
:10096000FF90EF90DF90CF9008957F928F929F92AB
:10097000AF92BF92CF92DF92EF92FF920F931F93AD
:10098000CF93DF937C018091EE030E94580301977F
:10099000D1F38091EC030E945803892BD1F3C4E278
:1009A000D0E0CE010197F1F78091EC039091ED0337
:1009B0000E94F6038CE490E00197F1F78091EC033C
:1009C0009091ED030E94EC032197F1F788E0C82E87
:1009D00077247394D12C94E2A92EB12C2CE4822E8E
:1009E000912C8091EE030E945803019709F4D728B7
:1009F000770CC4E2D0E0C5010197F1F78091EC03D8
:100A00009091ED030E94F6030CE410E0C4010197FD
:100A1000F1F78091EC039091ED030E94EC03C50186
:100A20000197F1F7CA94C110DCCFCE010197F1F71D
:100A30008091EC039091ED030E94F603C8010197A9
:100A4000F1F78091EC039091ED030E94EC03CE014D
:100A50000197F1F7CE010197F1F78091EE039091A4
:100A6000EF030E94F6038091EC039091ED030E9446
:100A7000F603C8010197F1F78091EC039091ED0323
:100A80000E94EC032197F1F78091EE039091EF0320
:100A90000E94EC03F701D08280E090E0DF91CF91DB
:100AA0001F910F91FF90EF90DF90CF90BF90AF908C
:100AB0009F908F907F9008958F929F92AF92BF9258
:100AC000CF92DF92EF92FF926B017C010E94BC00FB
:100AD0004B015C01C114D104E104F104F1F00E9466
:100AE000BC00DC01CB0188199909AA09BB09883E21
:100AF0009340A105B10570F321E0C21AD108E108C5
:100B0000F10888EE880E83E0981EA11CB11CC11468
:100B1000D104E104F10419F7DDCFFF90EF90DF90ED
:100B2000CF90BF90AF909F908F900895CF93DF9319
:100B300000D01F92CDB7DEB7789484B5826084BDB3
:100B400084B5816084BD85B5826085BD85B58160D1
:100B500085BD80916E00816080936E00109281004F
:100B6000809181008260809381008091810081600A
:100B700080938100809180008160809380008091CB
:100B8000B10084608093B1008091B0008160809357
:100B9000B00080917A00846080937A0080917A001E
:100BA000826080937A0080917A008E7F80937A00B1
:100BB00080917A00806880937A001092C10061E091
:100BC00081E10E94B00361E080E10E94B00361E036
:100BD0008FE00E94B00361E08EE00E94B00361E00C
:100BE0008EE00E94810360E08FE00E94810360E05C
:100BF00080E10E94810360E081E10E94810314B8DA
:100C00008FEF85B91AB88BB98091DD0387FD08C0D5
:100C100061E00E94B00360E08091DD030E948103E7
:100C200081E08093D80303E010E0C12CD12C760141
:100C3000B60155274427BE2DAD2D9C2D8827842B2A
:100C4000952BA62BB72BBC01CD016C297D298E29B4
:100C50009F290E94F1020E94540166E070E080E04A
:100C600090E00E945C058FEFC81AD80AE80AF80ADB
:100C70009EE1C916D104E104F104D1F6B60155276D
:100C80004427BE2DAD2D9C2D8827842B952BA62B7C
:100C9000B72BBC01CD016C297D298E299F290E948B
:100CA000F1020E94540166E070E080E090E00E9452
:100CB0005C0581E0C81AD108E108F108F9F6015095
:100CC000110909F0B2CF60E070E0CB010E94F1029F
:100CD0008FB7F894C090CF03D090D003E090D103A9
:100CE000F090D2038FBF98EEC90E93E0D91EE11C9D
:100CF000F11C8AEA0E940004892B61F432E0832E01
:100D0000912C02E010E0AA24A394B12C54E0452ECB
:100D1000512C70C02FB7F8948091CF039091D003DD
:100D2000A091D103B091D2032FBFC816D906EA060D
:100D3000FB06F8F6E3CF1093CB030093CA03D092DF
:100D4000C503C092C403E091C403F091C503E7302A
:100D5000F10508F4A7C10E9454018091C3038823C0
:100D600009F4E0C18091C303882379F16090C40342
:100D70007090C5038091C20390E0019727E0289FFF
:100D8000F001299FF00D1124EF58FD4FE60DF71DDE
:100D90008081E6E0F1E0E12CF12C9081891709F4E3
:100DA00039C59FEFE91AF90A339699E7E916F10474
:100DB000A1F7C3018D7F019709F41BC585E0681673
:100DC000710409F416C51092C3038091C803909171
:100DD000C90301969093C9038093C8036AE070E049
:100DE00080E090E00E945C0580E090E0892B29F093
:100DF0000E94000026E0C22ED12C82E10E945803FE
:100E0000892B29F083E10E945803892B31F5CE010B
:100E100002960E94B504892BD1F7EA818E2F90E0CB
:100E2000FC01ED5EF109E331F105B8F4EC5CFF4F34
:100E30000C94D90C0E94B6008BEA0E94000483E84F
:100E400001C08EEE0E94000408C00E94B600CE01D0
:100E500001960E94B5040E94B6001C9961C01092D0
:100E6000CD031092CC031092CB031092CA031092C0
:100E7000C9031092C8031C9907C061E070E080E0CC
:100E800090E00E945C05F7CFE090C603F090C703A6
:100E900068EC70E080E090E0E114F104F9F40E9465
:100EA0005C051C9912C01C9907C061E070E080E0ED
:100EB00090E00E945C05F7CF1093C7030093C60330
:100EC0001093C5030093C4032BC0B092C703A09234
:100ED000C603B092C503A092C40322C00E945C0561
:100EE0001C990DC01C9907C061E070E080E090E0A3
:100EF0000E945C05F7CF82E0E816F10449F41092F5
:100F0000C5031092C4031092C7031092C60308C011
:100F10001093C5030093C4031093C7030093C60343
:100F20001F9963C01092C7031092C6031092CB039F
:100F30001092CA031092C9031092C8031F9907C0E8
:100F400061E070E080E090E00E945C05F7CFE09007
:100F5000CC03F090CD0368EC70E080E090E0E11409
:100F6000F10409F50E945C051F9912C01F9907C082
:100F700061E070E080E090E00E945C05F7CF1093A4
:100F8000CD030093CC035092C5034092C4032DC0FF
:100F9000B092CD03A092CC0383E090E09093C50380
:100FA0008093C40322C00E945C051F990DC01F9945
:100FB00007C061E070E080E090E00E945C05F7CF40
:100FC00092E0E916F10449F41092C5031092C403AB
:100FD0001092CD031092CC0308C05092C5034092EA
:100FE000C4031093CD030093CC031E99ACCE109292
:100FF000CD031092CC031092C7031092C603109237
:10100000C9031092C8031E9907C061E070E080E038
:1010100090E00E945C05F7CFE090CA03F090CB030C
:1010200068EC70E080E090E0E114F104C1F40E940B
:101030005C051E9909C01E997ECE61E070E080E0DB
:1010400090E00E945C05F7CFB092CB03A092CA0358
:1010500085E090E09093C5038093C40374CE0E9412
:101060005C051E990DC01E9907C061E070E080E02C
:1010700090E00E945C05F7CF92E0E916F10449F494
:101080001092C5031092C4031092CB031092CA03AE
:101090005ACED092C503C092C4031093CB030093E1
:1010A000CA0351CEE95BFF4F0C94D90C8091C80361
:1010B0009091C903B6010E94C50CCB01B4010E94F6
:1010C000C50C019721F460E070E0CB0128C060E01E
:1010D00070E085E090E023C08091C8039091C9033F
:1010E000B6010E94C50CCB01B4010E94C50C01974A
:1010F00051F360E075E080E090E011C08091C8039A
:101100009091C903B6010E94C50CCB01B4010E94A5
:10111000C50C0197C1F265E070E080E090E00E94AC
:10112000F10219CE60E081E10E94810361E080E17B
:101130000E94810361E08FE00E94810361E08EE004
:101140000E94810362E070E080E090E00E945C0514
:1011500089B18F3E09F449C050F48F3B09F45FC058
:101160008F3D09F44FC08F3709F073C065C08B3FC6
:1011700011F118F4873F61F16CC08D3F79F08E3F1B
:1011800009F067C089B18F3F19F00E94AE00FACF15
:101190000E94A70081E08093C30328C389B18F3FD9
:1011A00019F00E94AE00FACF0E94A70081E0809360
:1011B000C30382E01BC389B18F3F19F00E94AE00C8
:1011C000FACF0E94A70081E08093C30383E00EC39F
:1011D00089B18F3F19F00E94AE00FACF0E94A7009C
:1011E00081E08093C30384E001C389B18F3F19F08C
:1011F0000E94AE00FACF0E94A70081E08093C30353
:1012000085E0F4C289B18F3F19F00E94AE00FACF99
:101210000E94A70081E08093C30386E0E7C289B102
:101220008F3F19F00E94AE00FACF0E94A70081E024
:101230008093C30387E0DAC289B18F3F19F00E941F
:10124000AE00FACF0E94A70081E08093C30388E03C
:10125000CDC283B18B3D11F118F4873D61F138C0E7
:101260008D3D79F08E3DA1F583B18F3D19F00E943F
:10127000AE00FACF0E94A70081E08093C30389E00B
:10128000B5C283B18F3D19F00E94AE00FACF0E9423
:10129000A70081E08093C3038AE0A8C283B18F3D99
:1012A00019F00E94AE00FACF0E94A70081E080935F
:1012B000C3038BE09BC283B18F3D19F00E94AE0047
:1012C000FACF0E94A70081E08093C3038CE08EC216
:1012D00061E081E10E94810360E080E10E9481037E
:1012E00061E08FE00E94810361E08EE00E94810353
:1012F00062E070E080E090E00E945C0589B18F3E82
:1013000009F450C050F48F3B09F466C08F3D09F4D6
:1013100056C08F3709F07AC06CC08B3F19F118F4B2
:10132000873F69F173C08D3F81F08E3F09F06EC039
:1013300089B18F3F19F00E94AE00FACF0E94A7003A
:1013400081E08093C3038DE051C289B18F3F19F0D2
:101350000E94AE00FACF0E94A70081E08093C303F1
:101360008EE044C289B18F3F19F00E94AE00FACFDF
:101370000E94A70081E08093C3038FE037C289B148
:101380008F3F49F00E94AE0061E070E080E090E0A5
:101390000E945C05F4CF0E94A70081E08093C30304
:1013A00080E124C289B18F3F19F00E94AE00FACFCC
:1013B0000E94A70081E08093C30381E117C289B135
:1013C0008F3F19F00E94AE00FACF0E94A70081E083
:1013D0008093C30382E10AC289B18F3F19F00E9452
:1013E000AE00FACF0E94A70081E08093C30383E19F
:1013F000FDC189B18F3F19F00E94AE00FACF0E9463
:10140000A70081E08093C30384E1F0C183B18B3DE9
:1014100011F118F4873D61F138C08D3D79F08E3DB2
:10142000A1F583B18F3D19F00E94AE00FACF0E9462
:10143000A70081E08093C30385E1D8C183B18F3DCC
:1014400019F00E94AE00FACF0E94A70081E08093BD
:10145000C30386E1CBC183B18F3D19F00E94AE007A
:10146000FACF0E94A70081E08093C30387E1BEC149
:1014700083B18F3D19F00E94AE00FACF0E94A70001
:1014800081E08093C30388E1B1C161E081E10E9402
:10149000810361E080E10E94810360E08FE00E94AF
:1014A000810361E08EE00E94810362E070E080E0F1
:1014B00090E00E945C0589B18F3E09F44AC050F467
:1014C0008F3B09F460C08F3D09F450C08F3709F09D
:1014D00074C066C08B3F19F118F4873F69F16DC085
:1014E0008D3F81F08E3F09F068C089B18F3F19F0C0
:1014F0000E94AE00FACF0E94A70081E08093C30350
:1015000089E174C189B18F3F19F00E94AE00FACF12
:101510000E94A70081E08093C3038AE167C189B17B
:101520008F3F19F00E94AE00FACF0E94A70081E021
:101530008093C3038BE15AC189B18F3F19F00E9498
:10154000AE00FACF0E94A70081E08093C3038CE134
:101550004DC189B18F3F19F00E94AE00FACF0E94B1
:10156000A70081E08093C3038DE140C189B18F3F23
:1015700019F00E94AE00FACF0E94A70081E080938C
:10158000C3038EE133C189B18F3F19F00E94AE00D1
:10159000FACF0E94A70081E08093C3038FE126C1A8
:1015A00089B18F3F19F00E94AE00FACF0E94A700C8
:1015B00081E08093C30380E219C183B18B3D11F1B7
:1015C00018F4873D61F138C08D3D79F08E3DA1F56D
:1015D00083B18F3D19F00E94AE00FACF0E94A700A0
:1015E00081E08093C30381E201C183B18F3D19F093
:1015F0000E94AE00FACF0E94A70081E08093C3034F
:1016000082E2F4C083B18F3D19F00E94AE00FACFA0
:101610000E94A70081E08093C30383E2E7C083B107
:101620008F3D19F00E94AE00FACF0E94A70081E022
:101630008093C30384E2DAC061E081E10E94810308
:1016400061E080E10E94810361E08FE00E948103FC
:1016500060E08EE00E94810362E070E080E090E054
:101660000E945C0589B18F3E09F44AC050F48F3B5B
:1016700009F460C08F3D09F450C08F3709F074C081
:1016800066C08B3F19F118F4873F69F16DC08D3F3B
:1016900081F08E3F09F068C089B18F3F19F00E9438
:1016A000AE00FACF0E94A70081E08093C30385E2D9
:1016B0009DC089B18F3F19F00E94AE00FACF0E9401
:1016C000A70081E08093C30386E290C089B18F3F79
:1016D00019F00E94AE00FACF0E94A70081E080932B
:1016E000C30387E283C089B18F3F19F00E94AE0027
:1016F000FACF0E94A70081E08093C30388E276C0FE
:1017000089B18F3F19F00E94AE00FACF0E94A70066
:1017100081E08093C30389E269C089B18F3F19F0EA
:101720000E94AE00FACF0E94A70081E08093C3031D
:101730008AE25CC089B18F3F19F00E94AE00FACFF7
:101740000E94A70081E08093C3038BE24FC089B160
:101750008F3F19F00E94AE00FACF0E94A70081E0EF
:101760008093C3038CE242C083B18B3D11F118F426
:10177000873D61F138C08D3D79F08E3DA1F583B193
:101780008F3D19F00E94AE00FACF0E94A70081E0C1
:101790008093C3038DE22AC083B18F3D19F00E946C
:1017A000AE00FACF0E94A70081E08093C3038EE2CF
:1017B0001DC083B18F3D19F00E94AE00FACF0E9488
:1017C000A70081E08093C3038FE210C083B18F3DF7
:1017D00019F00E94AE00FACF0E94A70081E080932A
:1017E000C30380E303C01092C3038FEF8093C2034F
:1017F000B9CA1092C5031092C4031092C703109285
:10180000C6031092CD031092CC031092CB0310921A
:10181000CA03D9CAF701EE0FFF1FEE0DFF1DEA5FE5
:10182000FE4F3180932D91709B8330FE03C089E57C
:101830000E940004832D8270282E31FE03C080EEAA
:101840000E940004F701EE0FFF1FEE0DFF1DEA5F7F
:10185000FE4FF2808F2D0E940004222019F080EEAE
:101860000E94000480EF0E9400048F2D0E9400045B
:101870009B81992309F49DCA80EF0E94000489E5A9
:101880000E94000496CA1092D8031092DE031092B0
:10189000E5031092E6031092E7031092E80381E05B
:1018A0008093E4038093E1031092E20392E090932B
:1018B000E3038093D70383E090E09093DC0380936D
:1018C000DB030E94F30C9093E0038093DF03009707
:1018D00061F023E0FC0111922A95E9F781E090E0A4
:1018E0009093DA038093D90308C01092DC0310921E
:1018F000DB031092DA031092D9038DE08093DD03AD
:101900008091D803882341F061E08DE00E94B0030C
:1019100060E08DE00E948103E7ECF0E0E491F0E00C
:10192000EE0FFF1FEA55FF4F859194919093EA03C4
:101930008093E903EBEDF0E0E491E093EB0382E1C7
:1019400090E09093ED038093EC0383E190E090931B
:10195000EF038093EE0382E190E00E94EC0380911C
:10196000EE039091EF030C94EC038091DF039091D0
:10197000E003009711F00E948B0D8091DD0387FD3D
:1019800003C060E00C94B003089597FB072E16F493
:10199000009407D077FD09D00E94DF0C07FC05D02A
:1019A0003EF4909581959F4F0895709561957F4F76
:1019B0000895EE0FFF1F0590F491E02D0994AA1BE6
:1019C000BB1B51E107C0AA1FBB1FA617B70710F02A
:1019D000A61BB70B881F991F5A95A9F7809590955C
:1019E000BC01CD0108950F931F93CF93DF938230F5
:1019F000910510F482E090E0E091F203F091F3039E
:101A000020E030E0A0E0B0E0309719F14081518152
:101A10000281138148175907C8F08417950769F4A4
:101A2000109731F012960C93129713961C9327C0BF
:101A30000093F2031093F30322C02115310519F02E
:101A40004217530718F49A01BD01EF01DF01F801B5
:101A5000DBCF21153105F9F0281B390B2430310576
:101A600080F48A819B816115710521F0FB019383CC
:101A7000828304C09093F3038093F203FE013296B5
:101A800044C0FE01E20FF31F81939193225031096C
:101A9000398328833AC02091F0033091F103232B3E
:101AA00041F420910201309103013093F10320931E
:101AB000F00320910001309101012115310541F41D
:101AC0002DB73EB74091040150910501241B350B01
:101AD000E091F003F091F103E217F307A0F42E1B5D
:101AE0003F0B2817390778F0AC014E5F5F4F241782
:101AF000350748F04E0F5F1F5093F1034093F003FA
:101B00008193919302C0E0E0F0E0CF01DF91CF91AB
:101B10001F910F910895CF93DF93009709F481C02F
:101B2000FC01329713821282A091F203B091F30369
:101B3000109781F420813181820F931F2091F0034F
:101B40003091F1032817390751F5F093F103E09331
:101B5000F00367C0ED0120E030E0CE17DF0740F46E
:101B60004A815B819E0141155105F1F0EA01F5CFF3
:101B7000D383C28340815181840F951FC817D90731
:101B800059F488819981840F951F029691838083EF
:101B90008A819B81938382832115310529F4F093F7
:101BA000F303E093F2033DC0E901FB83EA8349912B
:101BB0005991C40FD51FEC17FD0761F48081918105
:101BC000840F951F0296E90199838883828193810E
:101BD0009B838A83E0E0F0E012968D919C911397AD
:101BE000009719F0FD01DC01F7CF8D919C911197C1
:101BF0009D012E5F3F4F820F931F2091F003309184
:101C0000F1032817390769F4309729F41092F30388
:101C10001092F20302C013821282B093F103A093D8
:101C2000F003DF91CF91089510E0CCE7D0E004C03D
:101C3000FE010E94D90C2196CD37D107C9F7F8943F
:021C4000FFCFD4
:101C42000000F403800008006609000D0D005A1B15
:101C5200007620002921011622011E2301262401DB
:101C62002525012E26013627013D28013E29014660
:101C72002A01522B014C2C00412D004E2E00492FDF
:101C8200004A30004531001632001E33002634006F
:101C92002535002E36003637003D38003E390046E5
:101CA2003A00523B004C3C01413D014E3E01493F4E
:101CB200014A40005441011C4201324301214401C6
:101CC2002345012446012B4701344801334901438E
:101CD2004A013B4B01424C014B4D013A4E01314FFF
:101CE200014450014D51011552012D53011B540164
:101CF2002C55013C56012A57011D58012259013524
:101D02005A011A5B005B5C006A5D005D5E00555F14
:101D1200015160015461001C6200326300216400C1
:101D22002365002466002B67003468003369004392
:101D32006A003B6B00426C004B6D003A6E00316FE3
:101D4200004470004D71001572002D73001B740069
:101D52002C75003C76002A77001D78002279003528
:101D62007A001A7B015B7C016A7D015D7E01557FF1
:101D7200027181000582000683000484000C850044
:101D82000386000B87008388000A8900018A000904
:101D92008B027098026C99027DA10013A4027AA5AD
:101DA2000269B4026BB50275B60272B70274000022
:101DB200001B1B1B1B1B8080313131212181813291
:101DC20032324040828233333323238383343434A8
:101DD20024248484353535252585853636365E5E60
:101DE2008686373737262687873838382A2A8888DA
:101DF2003939392828898930303029298A8A087F57
:101E02007F08088B8B09090909098C8C7151517B58
:101E12007B8D8D7757577D7D8E8E6545455B5B8FBC
:101E22008F7252525D5D90907454542F2F9191791C
:101E320059595C5C92927555557C7C9393694949DA
:101E42007E7E94946F4F4F27279595705050222293
:101E5200969600000000000000B4B4B4B4B49898A0
:101E6200B5B5B5B5B599996141413B3B9A9A735362
:101E7200533A3A9B9B64444460609C9C6646462B62
:101E82002B9D9D6747472D2D9E9E6848485F5F9F0B
:101E92009F6A4A4A3D3DA0A06B4B4B3F3FA1A16CBC
:101EA2004C4C0000A2A20D0D0D0D0DA3A3B6B6B6AB
:101EB200B6B6A4A4B7B7B7B7B7A5A57A5A5A000061
:101EC200A6A67858580000A7A76343430000A8A815
:101ED2007656560000A9A96242420000AAAA6E4E96
:101EE2004E0000ABAB6D4D4D0000ACAC2C2C2C3C2D
:101EF2003CADAD2E2E2E3E3EAEAE2020202020AF99
:021F0200AF002E
:00000001FF
